:020000022000DC
:106000000000042019620200016202000362020023
:10601000056202000762020009620200000000003F
:106020000000000000000000000000000B62020001
:106030000D620200000000000F6202001162020007
:10604000F59B050013620200059C050019D50500AB
:1060500031D5050013620200898D0500F5B50500F4
:106060001362020035C805001362020013620200C9
:106070001362020029B205001362020013620200DB
:1060800013620200B1E30500136202001362020012
:10609000F1E305001362020091F5040013620200AF
:1060A0001362020013620200136202001362020014
:1060B0003DA6050013620200000000000000000081
:1060C000136202001362020013620200E1C60500BF
:1060D0001362020095980500E53306001362020082
:1060E0001362020069AF05001937050000000000C7
:1060F000000000001362020000000000F9C6050065
:10610000000000000000000000000000000000008F
:10611000000000000000000000000000000000007F
:10612000000000000000000000000000000000006F
:10613000000000000000000000000000000000005F
:10614000000000000000000000000000000000004F
:10615000000000000000000000000000000000003F
:10616000000000000000000000000000000000002F
:10617000000000000000000000000000000000001F
:10618000000000000000000000000000000000000F
:1061900000000000000000000000000000000000FF
:1061A00000000000000000000000000000000000EF
:1061B00000000000000000000000000000000000DF
:1061C00000000000000000000000000000000000CF
:1061D00000000000000000000000000000000000BF
:1061E00000000000000000000000000000000000AF
:1061F000000000000000000000000000000000009F
:10620000FEE7FEE7FEE7FEE7FEE7FEE7FEE7FEE766
:10621000FEE7FEE7704700BF1048804710484FF088
:106220000701884385460F4880470F48016841F4BD
:1062300070010160BFF34F8FBFF36F8F00F01CB888
:106240000A480B490B4A884207D0521A05D00378F6
:1062500001300B700131013AF9D17047156202002B
:106260000000042095F8040088ED00E0A0A60600D8
:10627000B82B0020CC2B0020354936480A1A02D012
:10628000072291438D46344934480A1A06D0072222
:10629000914381F30988022282F3148830483149FE
:1062A000314A00F044F831483149324A00F03FF8B1
:1062B00031483249324A00F03AF832483249334ADA
:1062C00000F035F832483349334A00F030F83348AB
:1062D0003349344A00F02BF833483449344A00F04B
:1062E00026F834483449002200F02CF83348344969
:1062F000002200F027F833483349091A082902DB45
:10630000002202604160314A90471F481F4988427D
:1063100005D00268043003B4904703BCF7E70020BF
:106320008646EC4600200021294A9047FEE7884235
:1063300007D0521A05D0037801300B700131013AB1
:10634000F9D17047884202D002700130FAE77047F5
:106350000000042000E003200000042000000420CE
:10636000980D0700CC2B002084340020D463020059
:10637000D4630200C4A50600980D0700CC2B0020B2
:10638000CC2B0020B4A60600B4A60600B4A60600D6
:10639000B4A60600B4A60600B4A60600B4A606007D
:1063A000B4A60600980D070050160700843400209C
:1063B0008434002084340020100D0120100D0120B1
:1063C000140D0120140D0120142D01204162020042
:0463D000C5B302004F
:1063D40084B003468DF80730084BB3F85630ADF857
:1063E4000E309DF80730002B03D0044B0022A3F895
:1063F4005620BDF80E30184604B07047843400208F
:1064040082B00190019B002B06D0054BB3F85430A9
:10641400DAB2019B1A7100E000BF02B0704700BFFE
:106424008434002084B003460A468DF807301346AE
:106434008DF806301C4BB3F85430ADF80E309DF88F
:106444000730002B10D0184BB3F854301AB29DF813
:106454000630012101FA03F31BB213431BB29AB2B3
:10646400114BA3F8542011E00F4BB3F854301AB277
:106474009DF80630012101FA03F31BB2DB431BB282
:1064840013401BB29AB2084BA3F85420064BB3F83E
:106494005620054BB3F8543013439AB2024BA3F879
:1064A400562000BF04B070478434002000B5A3B068
:1064B400019002AB24220021184643F0D4F8019B3A
:1064C4001B78042B00F2E08201A252F823F000BFF3
:1064D400E964020077680200056602008D6A020022
:1064E4000D67020000238DF88730019B04331A9353
:1064F40002AB0833199323238DF8083000238DF859
:106504000C3002AB184615F0FDFF00238DF88630E1
:1065140064E00023ADF884309DF886301A9A5B005D
:1065240013445B88ADF862309DF88630B24A5B0054
:1065340013445B88ADF86030AF4B1B789DF8862020
:106544009A421CD2BDF96220BDF960309A4207DD3F
:10655400BDF86220BDF86030D31A9BB21BB20CE0C8
:10656400BDF860209DF886301A995B000B44B3F99E
:1065740002309BB2D31A9BB21BB2ADF88430199B84
:10658400B3F90030BDF962209A4206DB199BB3F9D6
:10659400003047F6FF72934218D1199BB3F90230C9
:1065A400BDF962209A4205DC199BB3F9023013F558
:1065B400004F0BD1BDF98430199A9288934208DDBB
:1065C400199B9B884FF6FF72934202D001238DF8EA
:1065D40087309DF8863001338DF886301A9B1B78FE
:1065E4009DF886209A4294D39DF88730002118465E
:1065F400FFF718FF16221A997F4843F00BF844E27C
:1066040000238DF88330019B0433179302AB0833C6
:10661400169323238DF8083002238DF80C3002AB37
:10662400184615F06FFF00238DF882305CE00023DC
:106634001F939DF88230179A9B0013445B6815934F
:106644009DF882306C4A0A339B0013445B681493B0
:10665400179B1B781A469DF8823042FA03F303F025
:106664000103002B3AD0644B93F828301A469DF866
:10667400823042FA03F303F00103002B0BD0159A86
:10668400149B9A4203DD159A149BD31A02E0149AC0
:10669400159BD31A1F93169B1B68159A9A4205DB08
:1066A400169B1B686FF00042934213D1169B5B68E4
:1066B400159A9A4204DC169B5B68B3F1004F09D12A
:1066C400169B9B681F9A9A4209D9169B9B68B3F143
:1066D400FF3F04D001238DF8833000E000BF9DF814
:1066E400823001338DF882309DF88230022B9ED99E
:1066F4009DF8833002211846FFF794FE1022179963
:106704003E4842F087FFC0E100238DF87B30019BB7
:106714000433139302AB08331293374BDB8BADF87E
:106724004630139B5B88ADF84430334B5B8CADF83B
:106734004230139BDB88ADF8403023238DF80830BA
:1067440004238DF80C3002AB184615F0DBFE002351
:10675400ADF87830BDF84630002B14D0BDF8462093
:10676400BDF844309A4206D9BDF84620BDF84430FD
:10677400D31A9BB205E0BDF84420BDF84630D31AC5
:106784009BB2ADF87830129B1B88BDF844209A4226
:1067940003D2129B1B88002B17D1129B5B88BDF878
:1067A40044209A4205D9129B5B884FF6FF729342AC
:1067B4000BD1129B9B88BDF878209A4208D9129B72
:1067C4009B884FF6FF72934202D001238DF87B30F1
:1067D4000023ADF87630BDF84230002B18D0BDF858
:1067E4004220BDF840309A420AD9BDF84220BDF893
:1067F4004030D31A9BB209E084340020AC3400202A
:10680400BDF84020BDF84230D31A9BB2ADF87630C3
:10681400129B1B88BDF840209A4203D2129B1B880E
:10682400002B17D1129B5B88BDF840209A4205D9F2
:10683400129B5B884FF6FF7293420BD1129B9B888D
:10684400BDF876209A4208D9129B9B884FF6FF72B6
:10685400934202D001238DF87B309DF87B300421D4
:106864001846FFF7DFFD0A221399894842F0D2FE49
:106874000BE100238DF87530019B04330F9302ABB9
:1068840008330E9323238DF8083001238DF80C3040
:1068940002AB184615F036FE0023ADF872300F9B9C
:1068A4005B88ADF836307B4B1B8BADF83430BDF9CB
:1068B4003430002B14D0BDF93420BDF936309A425F
:1068C40006DDBDF83420BDF83630D31A9BB205E09E
:1068D400BDF83620BDF83430D31A9BB2ADF872300F
:1068E4000E9BB3F90230BDF936209A4205DA0E9BAD
:1068F400B3F9023013F5004F1DD10E9BB3F90030EC
:10690400BDF936209A4206DD0E9BB3F9003047F6F6
:10691400FF7293420FD10E9B9B88BDF872209A425E
:106924000CD90E9B9B884FF6FF72934206D00E9BA8
:106934009B88002B02D001238DF875300023ADF81D
:1069440070300F9B1B88ADF83230524BDB8AADF8A8
:106954003030BDF83030002B14D0BDF83020BDF8F5
:1069640032309A4206D9BDF83020BDF83230D31AFD
:106974009BB205E0BDF83220BDF83030D31A9BB28B
:10698400ADF870300E9B1B89BDF832209A4203D2B9
:106994000E9B1B89002B1BD10E9BDB88BDF832207C
:1069A4009A4205D90E9BDB884FF6FF7293420FD1B2
:1069B4000E9B5B89BDF870209A420CD90E9B5B89B3
:1069C4004FF6FF72934206D00E9B5B89002B02D0D8
:1069D40001238DF875300023ADF86E300F9B9B8832
:1069E400ADF82E302B4B5B8BADF82C30BDF82C3032
:1069F400002B14D0BDF82C20BDF82E309A4206D9B5
:106A0400BDF82C20BDF82E30D31A9BB205E0BDF89A
:106A14002E20BDF82C30D31A9BB2ADF86E300E9BED
:106A2400DB89BDF82E209A4203D20E9BDB89002B12
:106A34001BD10E9B9B89BDF82E209A4205D90E9B33
:106A44009B894FF6FF7293420FD10E9B1B8ABDF8B0
:106A54006E209A420CD90E9B1B8A4FF6FF7293420A
:106A640006D00E9B1B8A002B02D001238DF87530B3
:106A74009DF8753001211846FFF7D4FC06220F99C2
:106A8400054842F0C7FD00E000BF23B05DF804FBF9
:106A9400A0340020843400209A340020044B1B7856
:106AA400002B14BF01230023DBB21846704700BF3C
:106AB400289500200A4B1B78002B04D1094B1B7826
:106AC400DBB2002B05D0064B1B78022B01D001232F
:106AD40000E0002303F00103DBB21846704700BF57
:106AE40028950020DC54002000B583B003468DF8BF
:106AF4000730064A9DF80730137037F035FD02461B
:106B0400024B5A6000BF03B05DF804FB28950020D7
:106B140000B587B001900091009B03F00103002BA6
:106B240031D0019B1B68002B0FD1194B029300231A
:106B3400039302AB184632F02BFE0590059B002B05
:106B440022D0059836F0FAFE1EE0124B1B78DBB219
:106B540083F00103DBB2002B0AD0019B1B684FF4C6
:106B6400805219460C4842F055FD0A4B01221A7016
:106B7400019832F00DFE0490049B002B04D004987D
:106B840036F0DCFE00E000BF07B05DF804FB00BF98
:106B9400DC440020DC540020E084002000B58BB0ED
:106BA4000390029111461A460B46ADF8063013467F
:106BB400ADF8043024220021039842F054FD039BD5
:106BC40008330693069B00221A70BDF804305B0854
:106BD4009BB2DAB2069B5A70BDF830305B089BB2A8
:106BE400DAB2069B9A70039B03221A71BDF8342013
:106BF400BDF806309A42C0F09380BDF83430002BC3
:106C040000F08E80BDF806300C2B00F28980BDF8B0
:106C14000630002B00F08480BDF80420BDF830302D
:106C24009A427DD2BDF83020BDF80430D31AADF8B5
:106C34001630BDF81620BDF80630B2FBF3F3ADF8FC
:106C44002030BDF80630BDF8202002FB03F2BDF869
:106C540016309A4204DABDF820300133ADF8203002
:106C6400BDF80430ADF826300023ADF8243050E0F0
:106C74004FF0000307930023ADF822301CE0BDF869
:106C84002620BDF830309A421DD2BDF826309B0034
:106C9400029A1344D3ED007A9DED077A77EE277AB2
:106CA400CDED077ABDF826300133ADF82630BDF8B6
:106CB40022300133ADF82230BDF82220BDF8203057
:106CC4009A42DCD300E000BFDDED077A9FED167A2F
:106CD400F4EEC77AF1EE10FA02DD4FF6FF7106E02A
:106CE400DDED077AFCEEE77A17EE903A99B2BDF83B
:106CF4002430069A5B0013440A469A80069B1B784C
:106D04000133DAB2069B1A70BDF824300133ADF8B2
:106D14002430BDF82420BDF806309A42A8D300E000
:106D240000BF0BB05DF804FB00FF7F4700B585B0E2
:106D3400784B1B78042B00F2E48001A252F823F074
:106D4400076F0200596D0200E76D0200E16E020058
:106D5400E96E0200704B0393032005F08DFB03469C
:106D640083F00103DBB2002B0CD00321012005F0DA
:106D7400C7FB15F07AFA694B0B221A70674815F0B5
:106D8400C1FBC0E03BF034FC0346022B0ED03BF0C9
:106D940039FC039B1B78624918463BF0A5FC4FF471
:106DA400806160483BF07AFC0290ACE0039B187869
:106DB400039B93F90210039B5A78039B9B793BF046
:106DC4009BFE0346002B00F09E803CF01DFB02203E
:106DD400FFF78AFE4F4B00221A81534B00221A7090
:106DE40091E0514B1B78DBB2002B5DD0494B1B89E2
:106DF4009BB201339AB2474B1A81464B1B899AB214
:106E0400444B5B899A420ED2424B5B89002B0AD0D9
:106E1400404B1B7B83F00103DBB2002B03D0424BBE
:106E240000221A7072E04FF48062404940483CF0FE
:106E34003BFA012300223E493E4840F063FD4FF4F3
:106E440080623D493A4840F0D7FD4FF480613A48AA
:106E54003CF07EFA384B4FF000021A602F4BDB797E
:106E640099B22E4B1B7A9BB25B0098B22B4B5B7A88
:106E74009BB25B009BB24FF40072019200930346F5
:106E84000A462D492D48FFF789FE224B1B69002B2A
:106E940007D0204B1A7D294B5A711E4B1B69284879
:106EA4009847214B00221A701A4B1B899AB2194B2E
:106EB4005B899A4229D3174B1B7B83F00103DBB216
:106EC400002B22D03BF009FC3BF0C8FB3CF0A9FAB4
:106ED40015F0CBF90320FFF707FE16E00420FFF7B7
:106EE40003FE13E0032005F0C7FA0346002B04D089
:106EF4000321002005F004FB08E00020FFF7F4FD67
:106F040004E000BF02E000BF00E000BF05B05DF890
:106F140004FB00BF2895002008950020049500205C
:106F2400156B0200DC340020DC540020E0840020D7
:106F3400E064002050DE0600E0540020E0940020CD
:106F4400E494002000B583B00190019B002B01D193
:106F540007230DE020220021019842F084FB202227
:106F64000549019842F056FB044B03221A71002391
:106F7400184603B05DF804FBE4940020E09400207C
:106F840000B583B003460A468DF8073013468DF8E2
:106F940006309DF80730002B0ED00E4B1B78002BCB
:106FA40008D10C4A9DF8063013750120FFF79CFDAB
:106FB40000230BE0082309E0064B1B78002B04D0C8
:106FC4000420FFF791FD002300E00823184603B0D6
:106FD4005DF804FB2895002000B583B001900020E3
:106FE400FFF782FD064B00221A73054A019B1361C9
:106FF400034B02225A8100BF03B05DF804FB00BFBB
:107004002895002082B00190019B1B781B021AB2C4
:10701400019B01331B781BB213431BB29BB218466E
:1070240002B0704782B00190019B1B781A06019B45
:1070340001331B781B041A43019B02331B781B0288
:107044001343019A033212781343184602B070476F
:1070540082B003460091ADF80630BDF806301B0A35
:107064009BB2DAB2009B1A70009B0133BDF8062074
:10707400D2B21A700223184602B0704782B0034697
:1070840000918DF80730009B9DF807201A700123AA
:10709400184602B0704784B001900091019B03939D
:1070A400039B1ABA009B1A600423184604B0704765
:1070B40082B001900091019B1B0CDAB2009B1A7004
:1070C400019B1A0A009B0133D2B21A70009B02334F
:1070D400019AD2B21A700323184602B07047000016
:1070E40086B00292019303468DF80F300B468DF85B
:1070F4000E30092305939DF80F30A82B00F28982E6
:1071040001A252F823F000BFB1730200F37402002D
:10711400F3740200F3740200F37402001D7602009B
:1071240017760200F374020017760200F37402006B
:10713400F3740200F3740200F3740200F3740200A7
:10714400F37402001D7602001D7602001776020019
:1071540017760200F3740200F3740200F374020061
:10716400F3740200F3740200177602001D76020025
:107174001D760200F37402001D760200F37402000F
:10718400F3740200F37402000F75020041740200EC
:10719400F374020041740200F3740200F3740200F9
:1071A400F3740200F3740200F3740200F374020037
:1071B400F3740200F37402001776020017760200DB
:1071C400F3740200177602001776020017760200A5
:1071D400177602001776020017760200177602006F
:1071E400177602001776020017760200177602005F
:1071F400177602001776020017760200177602004F
:10720400177602001776020017760200177602003E
:10721400177602001776020017760200177602002E
:10722400177602001776020017760200177602001E
:10723400177602001776020017760200177602000E
:1072440017760200177602001776020017760200FE
:1072540017760200177602001776020017760200EE
:1072640017760200177602001776020017760200DE
:1072740017760200177602001776020017760200CE
:1072840017760200177602001776020017760200BE
:1072940017760200177602001776020017760200AE
:1072A400177602001776020017760200177602009E
:1072B400177602001776020017760200177602008E
:1072C400177602001776020017760200177602007E
:1072D400177602001776020017760200177602006E
:1072E400177602001776020017760200177602005E
:1072F400177602001776020017760200177602004E
:10730400177602001776020017760200177602003D
:1073140017760200D173020041740200177602004E
:1073240017760200F374020017760200ED73020070
:10733400ED7302002574020017760200177602002E
:1073440017760200177602001776020041740200D5
:107354006175020041740200417402002B75020041
:107364002B750200477502005D7402001776020057
:1073740017760200F374020017760200ED73020020
:10738400A97402001776020017760200177602002D
:10739400177602007B75020017760200097402005A
:1073A40041740200417402000F7502009DF80E3012
:1073B400052B08D9019B1B780633DAB2019B1A709E
:1073C4000023059341E1092305933EE19DF80E3026
:1073D400012B40F22381019B1B780233DAB2019B1B
:1073E4001A700023059319E19DF80E30022B40F228
:1073F4001781019B1B780333DAB2019B1A700023B7
:1074040005930DE19DF80E30042B40F20B81019B96
:107414001B780533DAB2019B1A700023059301E14E
:107424009DF80E30052B40F2FF80019B1B7806333C
:10743400DAB2019B1A7000230593F5E09DF80E3033
:10744400012B40F2F380019B1B780233DAB2019BDB
:107454001A7000230593E9E000238DF813309DF89A
:107464000E30012B40F2E480019B1B780233DAB228
:10747400019B1A70029B5B788DF813309DF81330D2
:107484005A1C9DF80E309A4201DB0923DEE0019B71
:107494001A789DF813301344DAB2019B1A70002352
:1074A4000593C5E000238DF812309DF80E30012BB2
:1074B40040F2C080029B5B788DF812309DF80E205C
:1074C4009DF812309A4203D39DF81230062B01D056
:1074D4000923BBE0019B1A789DF812301344DBB2F8
:1074E4000233DAB2019B1A7000230593A2E09DF8DF
:1074F4000E30002B00F0A080019B1B780133DAB220
:10750400019B1A700023059396E09DF80E30042B1E
:1075140040F29480019B1B780533DAB2019B1A7008
:10752400002305938AE09DF80E30082B40F28880F2
:10753400019B1B780933DAB2019B1A70002305936F
:107544007EE09DF80E30102B7CD9019B1B78113303
:10755400DAB2019B1A700023059373E09DF80E3094
:10756400072B71D9019B1B780833DAB2019B1A707F
:107574000023059368E0029B5B788DF811309DF839
:107584000E30012B05D9019B1B780233DAB2019B23
:107594001A709DF81130042B33D801A252F823F04D
:1075A400B9750200ED750200D3750200077602007A
:1075B400B97502009DF80E30072B24D9019B1B7866
:1075C4000633DAB2019B1A70002305931BE09DF881
:1075D4000E300D2B19D9019B1B780C33DAB2019BA9
:1075E4001A700023059310E09DF80E30132B0ED96A
:1075F400019B1B781233DAB2019B1A7000230593A6
:1076040005E0072322E000BF1FE000BF1DE000BF2C
:107614001BE00523059318E000BF16E000BF14E04B
:1076240000BF12E000BF10E000BF0EE000BF0CE09E
:1076340000BF0AE000BF08E000BF06E000BF04E0AE
:1076440000BF02E000BF00E000BF059B184606B083
:10765400704700BF00B593B00390029100931346A6
:107664008DF807300623119300238DF81630039B01
:10767400002B06D0029B002B03D09DF80730002B73
:1076840001D10723D7E324220021039841F0EBFF23
:10769400029B1A78039B1A70039B18780DF116034A
:1076A4009DF80710029AFFF71BFD0F900F9B002B0C
:1076B40001D00F9BBFE3009B1A789DF8163013444A
:1076C400DAB2009B1A70039B1B78A82B00F2AF83DD
:1076D40001A252F823F000BF8179020085790200EB
:1076E40085790200AF79020085790200377E0200B5
:1076F400337E020085790200337E02008579020020
:107704008579020085790200857902008579020075
:1077140085790200377E0200377E0200337E020044
:10772400337E0200857902008579020085790200A2
:107734008579020085790200337E0200377E0200DB
:10774400377E020085790200377E020085790200C7
:10775400857902008579020099790200AF790200E7
:1077640085790200D77D02008579020085790200BF
:107774008579020085790200857902008579020005
:107784008579020085790200337E0200337E02008F
:1077940085790200337E0200337E0200337E0200CC
:1077A400337E0200337E0200337E0200337E020009
:1077B400337E0200337E0200337E0200337E0200F9
:1077C400337E0200337E0200337E0200337E0200E9
:1077D400337E0200337E0200337E0200337E0200D9
:1077E400337E0200337E0200337E0200337E0200C9
:1077F400337E0200337E0200337E0200337E0200B9
:10780400337E0200337E0200337E0200337E0200A8
:10781400337E0200337E0200337E0200337E020098
:10782400337E0200337E0200337E0200337E020088
:10783400337E0200337E0200337E0200337E020078
:10784400337E0200337E0200337E0200337E020068
:10785400337E0200337E0200337E0200337E020058
:10786400337E0200337E0200337E0200337E020048
:10787400337E0200337E0200337E0200337E020038
:10788400337E0200337E0200337E0200337E020028
:10789400337E0200337E0200337E0200337E020018
:1078A400337E0200337E0200337E0200337E020008
:1078B400337E0200337E0200337E0200337E0200F8
:1078C400337E0200337E0200337E0200337E0200E8
:1078D400337E0200337E0200337E0200337E0200D8
:1078E400337E0200137B02008B790200337E020098
:1078F400337E020085790200337E02003B7B020066
:10790400217B0200557B0200337E0200337E02009D
:10791400337E0200337E0200337E0200337C020099
:10792400BB7B0200F57D0200AF7902001F7A0200E2
:107934001F7A02001F7A0200C3790200337E02001C
:10794400337E020085790200337E0200DD7A020074
:10795400737A0200337E0200337E0200337E02001B
:10796400337E0200477C0200337E02001B7E02004D
:10797400F57D0200E77D02009979020006235AE2B0
:107984000023119356E2029B5A78039B1A72002338
:1079940011934FE2029B01331846FFF743FB024663
:1079A400039B5A600023119344E2039B04330E9318
:1079B400029B5A780E9B1A70002311933AE2039BA0
:1079C40004330D93029B5A780D9B1A700D9B1B7800
:1079D4005A1C9DF807309A4201DB09232BE200234D
:1079E4008DF8433010E09DF843300233029A1A4474
:1079F4009DF8433011780D9A13440A465A709DF845
:107A0400433001338DF843300D9B1B789DF84320A0
:107A14009A42E8D3002311930CE2039B04330C93A2
:107A2400039B1B78972B01D1102200E008220C9BAA
:107A34001A7000238DF8423010E09DF84230013373
:107A4400029A1A449DF8423011780C9A13440A465B
:107A54005A709DF8423001338DF842300C9B1B78EC
:107A64009DF842209A42E8D300231193E2E1039B5C
:107A740004330B93029B5A780B9B1A7000238DF8E6
:107A8400413020E09DF841300233029A1A449DF8B7
:107A9400413011780B9A13440A465A709DF84130CC
:107AA4000B9A13445B782F2B06D99DF841300B9A1F
:107AB40013445B78392B01D90B23BCE19DF8413089
:107AC40001338DF841300B9B1B789DF841209A427D
:107AD400D8D300231193ADE1029B5A78039B1A710A
:107AE400029B02331846FFF78DFA03461A46039B9E
:107AF400DA80039BDB88002B04D0039BDB88B3F57F
:107B0400B46F01D9072396E10023119392E1029BFC
:107B14005A78039B1A71002311938BE1029B5A78C4
:107B2400039B1A72029B02331B789AB2039B5A81FD
:107B3400002311937EE1029B5A78039B1A71029BE6
:107B440002331B789AB2039BDA800023119371E10C
:107B5400039B04330A93029B5A780A9B1A70029B74
:107B640002331B7803F07F03DAB20A9B5A70029B3C
:107B740002331B785BB2DB115BB203F00103002B11
:107B840014BF01230023DAB20A9B9A71029B0333C8
:107B94001B785AB20A9B9A70029B1A790A9BDA7074
:107BA400029B5A790A9B1A71029B9A790A9B5A7111
:107BB400002311933EE1039B04330993029B5A78FB
:107BC400099B1A70029B9A78099B5A70029B033393
:107BD4001846FFF717FA03461A46099B9A80029B38
:107BE40005331846FFF70EFA03461A46099B5A80D6
:107BF400029B07331B789AB2099BDA80099B1B7896
:107C0400002B0FD0099B5B78002B0BD0099B9B8822
:107C1400002B07D0099B5B88002B03D0099BDB88D2
:107C2400002B01D1072306E10023119302E1039BFA
:107C340004330893029B5A78089B1A70002311930B
:107C4400F8E0039B04330793029B01331A78079BE4
:107C54001A70079B1B78042B00F2B68001A252F81D
:107C640023F000BF7D7C0200237D0200ED7C020036
:107C7400CD7D0200B57C0200029B02331846FFF75B
:107C8400C1F903461AB2079B9A80029B0433184633
:107C9400FFF7B8F903461AB2079BDA80029B063352
:107CA4001846FFF7AFF903461A46079B1A818DE081
:107CB400029B02331846FFF7A5F903461A46079BB1
:107CC400DA80029B04331846FFF79CF903461A46F0
:107CD400079B9A80029B06331846FFF793F90346E5
:107CE4001A46079B1A8171E0029B02331846FFF77C
:107CF40099F903461A46079B5A60029B06331846B5
:107D0400FFF790F903461A46079B9A60029B0A33D1
:107D14001846FFF787F90246079BDA6056E0039B93
:107D240008330693029B02331846FFF76BF90346A8
:107D34001AB2069B1A80029B04331846FFF762F9B5
:107D440003461AB2069B5A80029B06331846FFF775
:107D540059F903461A46069B9A80029B0833184633
:107D6400FFF750F903461A46069BDA80029B0A3352
:107D74001846FFF747F903461A46069B1A81029BE9
:107D84000C331846FFF73EF903461A46069B5A8100
:107D9400029B0E331846FFF735F903461A46069B35
:107DA4009A81029B10331846FFF72CF903461A46B2
:107DB400069BDA81029B12331846FFF723F9034628
:107DC4001A46069B1A8201E0072334E0002311932C
:107DD40030E0029B01331A78039B1A71002311933C
:107DE40028E0029B5A78039B1A710023119321E027
:107DF400029B5B788DF817309DF8173003F0010370
:107E0400002B0CBF01230023DBB21A46039B1A711B
:107E1400002311930EE0029B01331846FFF702F989
:107E240003461A46039B5A600023119302E005237C
:107E340001E000BF119B184613B05DF804FB00BFBE
:107E440000B5A5B002910192009303468DF80F305E
:107E540005AB32220021184641F005FC00238DF8C1
:107E64008F30029B002B05D0019B002B02D0009B7E
:107E7400002B02D1072300F09ABE9DF80F30002B8F
:107E840006D0029B1B788DF8143001238DF88F30B7
:107E9400029B1B78A82B00F2678601A252F823F0FC
:107EA400498102008D810200F78102006182020093
:107EB40025830200718B02006D8B0200658A02002B
:107EC4006D8B0200518402009D830200B78402007E
:107ED400A9850200718B02002B840200718B0200C1
:107EE400718B02006D8B02006D8B0200F38A02001D
:107EF400578602007986020079860200798602009C
:107F04006D8B0200718B0200718B0200EF86020000
:107F1400718B020085820200B1860200578702003D
:107F24006D8B02006D8B0200958402007B8702003A
:107F34003D8A0200258B0200F38A0200D18A0200E6
:107F44009584020095840200718B020095840200DE
:107F54006D8B02006D8B0200498B02006D8B020059
:107F64006D8B02006D8B02006D8B02006D8B020025
:107F74006D8B02006D8B02006D8B02006D8B020015
:107F84006D8B02006D8B02006D8B02006D8B020005
:107F94006D8B02006D8B02006D8B02006D8B0200F5
:107FA4006D8B02006D8B02006D8B02006D8B0200E5
:107FB4006D8B02006D8B02006D8B02006D8B0200D5
:107FC4006D8B02006D8B02006D8B02006D8B0200C5
:107FD4006D8B02006D8B02006D8B02006D8B0200B5
:107FE4006D8B02006D8B02006D8B02006D8B0200A5
:107FF4006D8B02006D8B02006D8B02006D8B020095
:108004006D8B02006D8B02006D8B02006D8B020084
:108014006D8B02006D8B02006D8B02006D8B020074
:108024006D8B02006D8B02006D8B02006D8B020064
:108034006D8B02006D8B02006D8B02006D8B020054
:108044006D8B02006D8B02006D8B02006D8B020044
:108054006D8B02006D8B02006D8B02006D8B020034
:108064006D8B02006D8B02006D8B02006D8B020024
:108074006D8B02006D8B02006D8B02006D8B020014
:108084006D8B02006D8B02006D8B02006D8B020004
:108094006D8B02006D8B02006D8B02006D8B0200F4
:1080A4006D8B02006D8B02006D8B02006D8B0200E4
:1080B400C98202006D8B02006D8B02006D8B020081
:1080C4006D8B0200518402009D830200B78402007C
:1080D4006D8B02006D8B02006D8B02006D8B0200B4
:1080E4006D8B02006D8B02006D8B0200F38A02001F
:1080F4006D8B02006D8B02006D8B02006D8B020094
:108104006D8B02006D8B02006D8B0200EF86020006
:108114006D8B02006D8B02006D8B0200578702008D
:108124006D8B02006D8B02006D8B02006D8B020063
:108134006D8B0200718B0200F38A0200D18A020067
:10814400718B0200029B043321939DF88F30219A96
:10815400127824A90B4403F87C2C9DF88F3001334A
:108164008DF88F30219B58689DF88F3005AA1344F1
:108174001946FEF790FF03461A469DF88F301344C4
:108184008DF88F3000F0F3BC029B04332093209BC6
:1081940018889DF88F3005AA13441946FEF758FF36
:1081A40003461A469DF88F3013448DF88F30209B78
:1081B40058889DF88F3005AA13441946FEF748FFE6
:1081C40003461A469DF88F3013448DF88F30209B58
:1081D40098889DF88F3005AA13441946FEF738FF96
:1081E40003461A469DF88F3013448DF88F3000F003
:1081F400BEBC029B04331F931F9B18889DF88F30CD
:1082040005AA13441946FEF723FF03461A469DF8B0
:108214008F3013448DF88F301F9B58889DF88F3012
:1082240005AA13441946FEF713FF03461A469DF8A0
:108234008F3013448DF88F301F9B98689DF88F30D2
:1082440005AA13441946FEF726FF03461A469DF86D
:108254008F3013448DF88F3000F089BC029B18795D
:108264009DF88F3005AA13441946FEF707FF03460D
:108274001A469DF88F3013448DF88F3000F077BC88
:10828400029B18799DF88F3005AA13441946FEF70E
:10829400F5FE03461A469DF88F3013448DF88F304F
:1082A400029BD8889DF88F3005AA13441946FEF71F
:1082B400CFFE03461A469DF88F3013448DF88F3055
:1082C40000F055BC00238DF87B30029B08331D93CE
:1082D4001D9B18789DF88F3005AA13441946FEF7A4
:1082E400CDFE03461A469DF88F3013448DF88F3027
:1082F4001D9B1B781D9A5B001344B3F9023098B29E
:108304009DF88F3005AA13441946FEF7A1FE0346D3
:108314001A469DF88F3013448DF88F3000F027BC37
:1083240000238DF88E30029B08331C931C9B187815
:108334009DF88F3005AA13441946FEF79FFE0346A5
:108344001A469DF88F3013448DF88F3000238DF832
:108354008E301AE09DF88E301C9A5B001344B3F9FA
:10836400023098B29DF88F3005AA13441946FEF7DF
:108374006FFE03461A469DF88F3013448DF88F30F4
:108384009DF88E3001338DF88E301C9B1B789DF840
:108394008E209A42DED3EAE300238DF88C30029BD0
:1083A40008331B931B9B18789DF88F3005AA134440
:1083B4001946FEF763FE03461A469DF88F301344B0
:1083C4008DF88F3000238DF88D3027E01B9B1B78B0
:1083D4001A469DF88D3042FA03F303F00103002B93
:1083E40017D09DF88C305A1C8DF88C201B9A9B005A
:1083F40013445B6818469DF88F3005AA1344194648
:10840400FEF756FE03461A469DF88F3013448DF846
:108414008F309DF88D3001338DF88D309DF88D307F
:10842400022BD3D9A3E300238DF86B309DF88F3052
:1084340005AAD018029B04330922194641F0EAF830
:108444009DF88F3009338DF88F3090E3029B1879B3
:108454009DF88F3005AA13441946FEF70FFE034614
:108464001A469DF88F3013448DF88F30029BDB88B9
:10847400D8B29DF88F3005AA13441946FEF7FEFDC5
:1084840003461A469DF88F3013448DF88F306EE3FF
:10849400029B58689DF88F3005AA13441946FEF7CD
:1084A400FAFD03461A469DF88F3013448DF88F3039
:1084B4005DE3029B04331993199B5B785BB203F071
:1084C4007F035BB2199A9279002A02D06FF07F027F
:1084D40000E0002213435BB28DF86330199B1878D7
:1084E4009DF88F3005AA13441946FEF7C7FD0346CD
:1084F4001A469DF88F3013448DF88F309DF88F30D5
:1085040005AA1A449DF8633011461846FEF7B6FDD5
:1085140003461A469DF88F3013448DF88F30199B0B
:1085240093F90230D8B29DF88F3005AA1344194646
:10853400FEF7A4FD03461A469DF88F3013448DF8C8
:108544008F30199BD8789DF88F3005AA13441946AB
:10855400FEF794FD03461A469DF88F3013448DF8B8
:108564008F30199B18799DF88F3005AA134419464A
:10857400FEF784FD03461A469DF88F3013448DF8A8
:108584008F30199B58799DF88F3005AA13441946EA
:10859400FEF774FD03461A469DF88F3013448DF898
:1085A4008F30E4E2029B08331793179B18789DF8E9
:1085B4008F3005AA13441946FEF760FD03461A4698
:1085C4009DF88F3013448DF88F30179B58789DF8A1
:1085D4008F3005AA13441946FEF750FD03461A4688
:1085E4009DF88F3013448DF88F30179B98789DF841
:1085F4008F3005AA13441946FEF740FD03461A4678
:108604009DF88F3013448DF88F3000238DF88B3014
:1086140018E09DF88B30179A5B00134498889DF8F6
:108624008F3005AA13441946FEF712FD03461A4675
:108634009DF88F3013448DF88F309DF88B300133C3
:108644008DF88B30179B1B789DF88B209A42E0D3D2
:108654008DE2029B18799DF88F3005AA13441946C0
:10866400FEF70CFD03461A469DF88F3013448DF82F
:108674008F307CE2029B1B78172B01D1102200E083
:108684000822029B1A719DF88F3005AAD018029B0C
:10869400591D029B1B791A4640F0BCFF029B1A79B4
:1086A4009DF88F3013448DF88F3060E29DF88F3041
:1086B4005A1C8DF88F201946029B1A7924AB0B445F
:1086C40003F87C2C9DF88F3005AAD018029B591D05
:1086D400029B1B791A4640F09DFF029B1A799DF874
:1086E4008F3013448DF88F3041E2029B0833169388
:1086F400169B58889DF88F3005AA13441946FEF737
:10870400A7FC03461A469DF88F3013448DF88F302A
:10871400169BD8889DF88F3005AA13441946FEF796
:1087240097FC03461A469DF88F3013448DF88F301A
:10873400169B187A9DF88F3005AA13441946FEF744
:108744009DFC03461A469DF88F3013448DF88F30F4
:108754000DE2029BDB8818469DF88F3005AA13446E
:108764001946FEF798FC03461A469DF88F301344C9
:108774008DF88F30FBE1029B04331593159B187819
:108784009DF88F3005AA13441946FEF777FC03467B
:108794001A469DF88F3013448DF88F30159B1B7843
:1087A400042B00F23E8101A252F823F0C587020097
:1087B400F788020091880200278A02002F880200AD
:1087C400159BB3F9043098B29DF88F3005AA134471
:1087D4001946FEF73DFC03461A469DF88F301344B4
:1087E4008DF88F30159BB3F9063098B29DF88F3011
:1087F40005AA13441946FEF72BFC03461A469DF8B6
:108804008F3013448DF88F30159B18899DF88F3065
:1088140005AA13441946FEF71BFC03461A469DF8A5
:108824008F3013448DF88F3005E1159BD8889DF85F
:108834008F3005AA13441946FEF70AFC03461A466C
:108844009DF88F3013448DF88F30159B98889DF8D0
:108854008F3005AA13441946FEF7FAFB03461A465D
:108864009DF88F3013448DF88F30159B18899DF82F
:108874008F3005AA13441946FEF7EAFB03461A464D
:108884009DF88F3013448DF88F30D4E0159B5B68CE
:1088940018469DF88F3005AA13441946FEF7FBFBD2
:1088A40003461A469DF88F3013448DF88F30159B7C
:1088B4009B6818469DF88F3005AA13441946FEF7A5
:1088C400EAFB03461A469DF88F3013448DF88F3027
:1088D400159BD8689DF88F3005AA13441946FEF7F6
:1088E400DAFB03461A469DF88F3013448DF88F3017
:1088F400A1E0029B08331493149BB3F9003098B29F
:108904009DF88F3005AA13441946FEF7A1FB0346D0
:108914001A469DF88F3013448DF88F30149BB3F9A9
:10892400023098B29DF88F3005AA13441946FEF719
:108934008FFB03461A469DF88F3013448DF88F3011
:10894400149B98889DF88F3005AA13441946FEF7A6
:108954007FFB03461A469DF88F3013448DF88F3001
:10896400149BD8889DF88F3005AA13441946FEF746
:108974006FFB03461A469DF88F3013448DF88F30F1
:10898400149B18899DF88F3005AA13441946FEF7E5
:108994005FFB03461A469DF88F3013448DF88F30E1
:1089A400149B58899DF88F3005AA13441946FEF785
:1089B4004FFB03461A469DF88F3013448DF88F30D1
:1089C400149B98899DF88F3005AA13441946FEF725
:1089D4003FFB03461A469DF88F3013448DF88F30C1
:1089E400149BD8899DF88F3005AA13441946FEF7C5
:1089F4002FFB03461A469DF88F3013448DF88F30B1
:108A0400149B188A9DF88F3005AA13441946FEF763
:108A14001FFB03461A469DF88F3013448DF88F30A0
:108A240009E0009B1A789DF88F301344DAB2009B5A
:108A34001A700723BBE09AE0029B04331393139B41
:108A440018789DF88F3005AA13441946FEF716FBD3
:108A540003461A469DF88F3013448DF88F3086E014
:108A6400029B08331293129BB3F9023098B29DF81B
:108A74008F3005AA13441946FEF7EAFA03461A464C
:108A84009DF88F3013448DF88F30129B18889DF811
:108A94008F3005AA13441946FEF7DAFA03461A463C
:108AA4009DF88F3013448DF88F30129B98889DF871
:108AB4008F3005AA13441946FEF7CAFA03461A462C
:108AC4009DF88F3013448DF88F3050E0029B187955
:108AD4009DF88F3005AA13441946FEF7CFFA0346D2
:108AE4001A469DF88F3013448DF88F303FE0029B77
:108AF4001B7903F00103002B0CBF01230023DBB21D
:108B040018469DF88F3005AA13441946FEF7B6FAA5
:108B140003461A469DF88F3013448DF88F3026E0B3
:108B2400029B5B6818469DF88F3005AA13441946CA
:108B3400FEF7B1FA03461A469DF88F3013448DF8B8
:108B44008F3014E0029B5B6818469DF88F3005AAAD
:108B540013441946FEF79FFA03461A469DF88F30D0
:108B640013448DF88F3002E0052320E000BF009B02
:108B74001B781A469DF88F301A449DF898309A4213
:108B840001DB092313E0009B1B781A46019B134465
:108B94009DF88F2005A9184640F03CFD009B1A78EB
:108BA4009DF88F301344DAB2009B1A7000231846E4
:108BB40025B05DF804FB00BF00B585B00190019BB2
:108BC400002B0AD0074B43F001030393019B9B0145
:108BD4000293039B0298984700E000BF05B05DF83C
:108BE40004FB00BFC0A6060000B583B00190019B42
:108BF400002B0AD04FF47A70FFF7DEFF019B013B94
:108C04000193019B002BF5D100E000BF03B05DF898
:108C140004FB0000044B1B78002B14BF012300232A
:108C2400DBB21846704700BFF4950020F0B585B05C
:108C34000190134F019B19464FF000024FF00003BF
:108C44004FF00004D40344EA5144CB0313F5FA75FE
:108C540044F100064FF47A724FF00003284631467F
:108C640040F0C2F803460C4600221946384635F057
:108C740027FC0390034B00221A7400BF05B0F0BD1B
:108C8400D4950020F495002000B583B003468DF8F8
:108C94000730064A9DF80730137035F065FC02462C
:108CA400024BDA6000BF03B05DF804FBF4950020CA
:108CB40000B585B000921A4603468DF807300B467E
:108CC4008DF806301346ADF8043000230393BDF845
:108CD40004309DF806109DF80700009A3CF080FDD2
:108CE4000390039B002B02D06FF0030300E00023EA
:108CF400184605B05DF804FB00B585B000921A462D
:108D040003468DF807300B468DF806301346ADF850
:108D1400043000230393BDF804309DF806109DF839
:108D24000700009A3CF01EFD0390039B002B02D029
:108D34006FF0030300E00023184605B05DF804FB60
:108D440000B585B0134B012283F83A20114B05225C
:108D540083F838200F4B022283F839200D4B04226C
:108D640083F83B200F238DF80F309DF80F3009490D
:108D740018463AF06FFC03468DF80E309DF90E301C
:108D8400002B01D0032300E00023184605B05DF852
:108D940004FB00BF4095002000B585B06A4B1B78EA
:108DA400032B00F2C98001A252F823F03D8F020088
:108DB400C18D0200878E02001B8F0200634B039358
:108DC400012003F059FB034683F00103DBB2002BBF
:108DD4000AD00121012003F093FB5D4B06221A7097
:108DE4005B4813F08FFBACE03CF02CFD0346022BF8
:108DF40002D03CF031FDA4E0564B76225A70554B1C
:108E040001229A70534B544A5A60524B534A9A6007
:108E1400504B534ADA604F483AF00CFB03468DF846
:108E24000B309DF90B3013F1020F03D10320FFF730
:108E34002BFF86E09DF90B30002B7FD1FFF780FFDD
:108E440003468DF80B309DF90B30002B03D0032023
:108E5400FFF71AFF75E03F4901203AF05AFC034638
:108E64008DF80B309DF90B30002B03D00320FFF756
:108E74000BFF66E02820FFF7D9FE0220FFF704FF6E
:108E84005FE0314BDB68184635F081FB01902E4BD7
:108E94001B7C83F00103DBB2002B03D0019BB3F5F1
:108EA4007A7F4DD32B4A2F4907203AF0E5FC03463D
:108EB4008DF80B309DF90B30002B03D00320FFF706
:108EC400E3FE3EE0274B5B681AB2274B5A81254BE1
:108ED4009B68642202FB03F39B0A9AB2224B1A8119
:108EE400204B1B68214AA2FB03235B0B9AB21E4B47
:108EF4009A81154B5B68002B0AD01B4B01221A7117
:108F0400114B1A7A184B5A710F4B5B6818489847E3
:108F14000320FFF7B9FE012003F0AEFA0346002B4D
:108F240006D03CF0C5FC0121002003F0E9FA08E07A
:108F34000020FFF7A9FE04E000BF02E000BF00E04C
:108F440000BF05B05DF804FBF4950020B495002043
:108F5400B095002040950020B58C0200FD8C0200E5
:108F6400ED8B0200809500208C9500205917B7D115
:108F74009095002000B583B00190019B002B01D196
:108F840007230DE020220021019840F06CFB064BE2
:108F940001221A7120220549019840F03BFB00236D
:108FA400184603B05DF804FB8C95002090950020D2
:108FB40000B583B003460A468DF8073013468DF892
:108FC40006309DF80730002B0ED00E4B1B78002B7B
:108FD40008D10C4A9DF8063013720120FFF754FEA5
:108FE40000230BE0082309E0064B1B78002B04D078
:108FF4000320FFF749FE002300E00823184603B0CE
:109004005DF804FBF495002082B00190044B1B78BA
:10901400022B02D1024B01221A7400BF02B0704726
:10902400F495002000B585B001900020FFF72CFED8
:109034000A4A019B53600A4A00210A4835F010FA93
:109044000390039B0293029B002B02D0029834F0FE
:1090540075FC00BF05B05DF804FB00BFF49500206B
:109064000D900200B4A6060000B585B00190019BE6
:10907400002B0AD0074B43F001030393019B9B0190
:109084000293039B0298984700E000BF05B05DF887
:1090940004FB00BF10A7060000B583B00190019B3C
:1090A400002B0AD04FF47A70FFF7DEFF019B013BDF
:1090B4000193019B002BF5D100E000BF03B05DF8E4
:1090C40004FB000084B003468DF807309DF8073098
:1090D4005B1003F00703013B032B1BD801A252F8DA
:1090E40023F000BFF99002000191020009910200EF
:1090F400119102001F238DF80F300FE03F238DF8EC
:109104000F300BE05F238DF80F3007E07F238DF8DD
:109114000F3003E000238DF80F3000BF9DF80F30AF
:10912400184604B0704700BF84B003468DF807307A
:1091340000238DF80F309DF807303F2B0DD03F2BC7
:1091440002DC1F2B05D014E05F2B0AD07F2B0CD040
:109154000FE001238DF80F300FE002238DF80F305C
:109164000BE003238DF80F3007E004238DF80F3054
:1091740003E000238DF80F3000BF9DF80F305B0033
:10918400DBB2184604B0704710B584B003460091B2
:109194008DF80730009B002B43D02022002100983B
:1091A40040F061FA009B00221A70009B9DF8072092
:1091B4005A701D4BDA78009B1A710023ADF80E30FB
:1091C40027E0BDF80E20184913469B0013449B006A
:1091D4000B4418331B6818463FF06CFB4FF0000239
:1091E400124B3FF059F903460C461A462346BDF884
:1091F4000E40104619463FF007FB034619B2009A89
:10920400630013440A46DA80BDF80E300133ADF82A
:109214000E30054BDB789BB2BDF80E209A42D0D3BA
:1092240000E000BF04B010BD2896002000005940A3
:1092340000B583B0019001990020FFF7A5FF00BF9E
:1092440003B05DF804FB000084B003468DF80730DA
:109254009DF80730092B18D900238DF80F300FE043
:109264009DF80F200F4913469B0013449B000B44A9
:109274001F3300221A709DF80F3001338DF80F3020
:109284009DF80F30092BEBD90AE09DF8072005491A
:1092940013469B0013449B000B441F3300221A7097
:1092A40004B070472896002000B583B003468DF8BB
:1092B4000730084A9DF807309370FF20FFF7C4FF7A
:1092C40035F052F90246034BC3F8E42000BF03B063
:1092D4005DF804FB2896002000B585B0019000914C
:1092E40000238DF80F3000238DF80E30019B002BE6
:1092F40002D0009B002B01D10E231EE0114B1B78E2
:109304005AB29DF90F3013435BB28DF80F300D4BF9
:109314005B791846FFF708FF03461A469DF80F309D
:1093240013438DF80F30019B9DF80F201A70054BE5
:109334001B699AB2009B1A800023184605B05DF899
:1093440004FB00BF2896002000B58DB003460A46F2
:109354008DF807301346ADF8043000238DF82F3014
:109364009DF807301846FFF7ADFE03468DF82F3001
:109374009DF82F30002B01D107233AE09DF80730E8
:1093840003F00103002B14BF01230023DAB21B4BAB
:109394001A701A4B5B799DF82F209A4203D0174B11
:1093A4001B78002B03D1154B1B78002B06D0144BD4
:1093B40001221A70114A9DF82F3053710F4B1B78FC
:1093C40083F00103DBB2002B03D00E4B184635F0BB
:1093D400A9F803238DF8083002AB9A1D02AB0433BD
:1093E40011461846FFF778FF02AB184613F018FB36
:1093F400002318460DB05DF804FB00BF289600203A
:10940400149700200896002000B583B001900B4B00
:109414009B78072B0AD0094B002283F8E020074BE6
:10942400FF221A730620FFF73FFF03E00820FFF72F
:109434003BFF00BF00BF03B05DF804FB289600208B
:1094440000B585B003468DF807309DF80730092B29
:109454001CD900238DF80F3013E09DF80F2013461C
:109464009B0013449B001033124A13440433142208
:109474000021184640F0F7F89DF80F3001338DF8BD
:109484000F309DF80F30092BE7D90EE09DF8072027
:1094940013469B0013449B001033064A13440433C1
:1094A40014220021184640F0DEF800BF05B05DF834
:1094B40004FB00BF2896002082B003460A468DF8BC
:1094C400073013468DF806309DF80730092B2FD846
:1094D4009DF80720194913469B0013449B000B4435
:1094E4001F331B78DBB20133D8B2144913469B00F7
:1094F40013449B000B441F3302461A709DF8072047
:109504000E4913469B0013449B000B441F331B78E6
:10951400DBB2052B0ED99DF80720084913469B00A2
:1095240013449B000B441833054A1A6000BF01E042
:1095340000BF00E000BF02B0704700BF28960020C3
:109544000000C8C208B50A4B00221A70094B002259
:10955400DA70084B01229A70064B00229A600A20A6
:10956400FFF76EFF0021002002F0CAFF00BF08BD14
:109574001497002028960020094B9B78002B09D0D3
:10958400074B9B78052B05D0054B9B78072B01D007
:10959400012300E0002303F00103DBB21846704707
:1095A4002896002000B583B000230193194B1B7B40
:1095B400092B1ED8174B1B7B1946164A0B469B00DA
:1095C4000B449B00134414331B78DBB2002B10D0E4
:1095D400104B1B7B1A4613469B0013449B00183305
:1095E4000C4A1344083301930A4B1A7B094B1A7132
:1095F40005E0084BFF221A73064B00221A710198EA
:109604003BF073FD03460093009B184603B05DF8DE
:1096140004FB00BF289600202DE9F041A4B0AE4B16
:109624001B78002B01D0FFF78DFFAC4B9B78013BDF
:10963400082B15D801A252F823F000BF7D96020032
:10964400D5960200B1970200E9980200B39C02008B
:10965400F9990200EF9A0200239B0200A19C0200E8
:10966400002002F009FF0346002B00F022830021B2
:10967400002002F045FF1CE3002002F0FDFE03463B
:109684008DF88B309DF88B3083F00103DBB2002B17
:1096940007D00021012002F033FF0A20FFF7FCFC71
:1096A40018E33DF01EFA0346002B0DD09DF88B30D5
:1096B400002B09D0894B002283F8E8203BF0F8FA0C
:1096C4000220FFF7F1FD05E30020FFF7EDFD01E3C4
:1096D40013AB00221A605A60804BD3F8E43018466A
:1096E40034F055FF2190219B40F6B732934240F26B
:1096F400E28213AB18463BF0F5FA03468DF883304B
:10970400764B93F8E830DBB20133DAB2734B83F86B
:10971400E8209DF88330002B21D0704BDB781A466B
:1097240013469B0013449B0018336C4A13440833BC
:1097340013A9082218463FF06DFF684BDB781946E1
:10974400664A0B469B000B449B00134414330122CE
:109754001A70624BDB780133DAB2604BDA709DF831
:10976400833083F00103DBB2002B04D15B4BDB7845
:10977400092B40F2A282594BDB78002B08D1574BBE
:1097840093F8E830DBB2042B02D80220FFF78CFDFB
:10979400524BDB78002B01D1002300E00323184651
:1097A400FFF782FD4D4B00221A7193E210AB0022A9
:1097B4001A605A601A72494B1B79092B02D9474B1C
:1097C40009221A71454B1B791A4613469B00134410
:1097D4009B001033414A134404331F931F9B1B788F
:1097E400002B62D01F9BDB7A042B5ED81F9B0C33AB
:1097F40010AA114618463BF037FC03468DF87B301F
:109804009DF87B30002B47D19DF841301B021AB2E2
:109814009DF840301BB213431BB2ADF87830BDF84D
:10982400783018463BF02FFAF0EE407A1F9BC3EDD8
:10983400017A9DF842201F9B5A729DF843201F9B7A
:109844009A729DF844201F9B1A7200231D93244B87
:109854000BAC1D460FCD0FC42B6823601F9B1B7AD6
:109864003F2B0CD03F2B02DC1F2B05D010E05F2BCD
:1098740008D07F2B09D00BE00B9B1D9315E00C9BAC
:109884001D9312E00D9B1D930FE00E9B1D930CE0A6
:109894000F9B1D9300BF08E0104B1B799DF87B20A4
:1098A40011461846FFF708FE14E20C4B1B790133EE
:1098B400DAB20A4B1A71094B1A79084BDB789A42CF
:1098C400C0F0FD81054B00221A71044B00225A702E
:1098D4000420FFF7E9FCFDE11497002028960020FE
:1098E400F4A60600B84B1B79092B02D9B64B092202
:1098F4001A71B54B1B791A4613469B0013449B00FF
:109904001033B14A134404331C931C9B1B78002B63
:1099140051D01C9B1A7AAC4B5B799A424BD01C9B5E
:10992400DB7A042B47D81C9B03F10C001C9B597A4F
:109934001C9B9A7AA44B5B793BF0FCFA03468DF8A6
:109944006F309DF86F30002B08D09F4B1B799DF82A
:109954006F2011461846FFF7AFFDBBE11C9B0C338B
:1099640018463BF021FB03468DF86F309DF86F30AD
:10997400002B08D0944B1B799DF86F201146184694
:10998400FFF79AFDA6E11C9B0C3318463BF03CFB09
:1099940003468DF86F309DF86F30002B08D08A4B4A
:1099A4001B799DF86F2011461846FFF785FD91E15C
:1099B400854B01225A70844B1B790133DAB2824BF6
:1099C4001A71814B1A79804BDB789A42C0F0798105
:1099D4007D4B00221A717C4B5B78002B03D0032053
:1099E400FFF762FC6DE10520FFF75EFC0020FFF746
:1099F4000BFD66E1002002F03FFD03468DF86E305A
:109A040000232393704B1B7883F00103DBB2002BFC
:109A140007D00520FFF748FC0021002002F070FD6C
:109A240058E19DF86E3083F00103DBB2002B07D0C0
:109A34000021012002F064FD0A20FFF72DFB49E11B
:109A4400FFF7B0FD1A901A9B002B07D00520FFF7F3
:109A54002BFC0021002002F053FD3BE15A4B9B6894
:109A64000133594A93600720FFF71EFC564B5B797C
:109A74003F2B0BD05F2B05D01F2B0AD04FF448731C
:109A8400239309E04FF4C873239305E0C823239379
:109A940002E06423239300BF4C4D239B19464FF0EF
:109AA40000024FF000034FF00004D40344EA514491
:109AB400CB0313F5FA7744F100084FF47A724FF0B0
:109AC4000003384641463FF08FF903460C46002216
:109AD4001946284634F0F4FC1990199B002B00F029
:109AE400F280199833F02AFFEDE0374BD3F8E430D5
:109AF400184634F04CFD1890189B40F6B832934247
:109B040005D8314BD3F8E430002B40F0DE802E4BE7
:109B14000022C3F8E4200820FFF7C6FBD5E008AB19
:109B240000221A605A601A72274B1B79092B02D93A
:109B3400254B09221A71244B1B791A4613469B00A4
:109B440013449B001033204A134404331793179B88
:109B54001B78002B3ED0179BDB7A042B3AD8179B3B
:109B64000C3308AA114618463BF07EFA03468DF8DA
:109B74005B309DF85B30002B15D19DF821301B0222
:109B84001AB29DF820301BB213431BB2ADF8583003
:109B9400BDF8583018463BF076F8F0EE407A179B43
:109BA400C3ED017A16E0084B1B799DF85B20114642
:109BB4001846FFF781FC179BDB7A042B40F2878061
:109BC400179B034A5A6085E02896002008960020D7
:109BD4000000C842414B1B790133DAB23F4B1A7182
:109BE4003E4B1B7BFF2B05D13C4B1A793B4BDB785F
:109BF4009A4209D2394B1B7BFF2B6AD0374B1A7B15
:109C0400364B1B799A4264D0344B00221A71334B81
:109C1400D3F8DC30002B11D0304B93F8E0306A4697
:109C240011461846FFF7B0FA2C4B002283F8E020C7
:109C34002A4BD3F8DC306A4610469847284F274B06
:109C44001B694EF6602202FB03F319464FF0000233
:109C54004FF000034FF00004D40344EA5144CB0313
:109C640013F5FA7544F100064FF47A724FF00003CD
:109C7400284631463FF0B8F803460C460022194600
:109C8400384634F01DFC1590159B002B02D0159816
:109C940033F054FE0920FFF707FB1BE000210020EE
:109CA40002F02EFC0520FFF7FFFA00BF12E000BF10
:109CB40010E000BF0EE000BF0CE000BF0AE000BFF0
:109CC40008E000BF06E000BF04E000BF02E000BF00
:109CD40000E000BF24B0BDE8F08100BF289600205A
:109CE4000896002000B583B003460A468DF8073075
:109CF40013468DF80630194B9B78052B06D1174B6C
:109D04001B7883F00103DBB2002B01D0082320E091
:109D14009DF80630092B0CD8104BDB789DF80620F3
:109D24009A4201D3072314E00C4A9DF806301373BA
:109D340002E00A4BFF221A73084A9DF8073082F8A2
:109D4400E030074B184634F0EDFB0620FFF7ACFA81
:109D54000023184603B05DF804FB00BF28960020DA
:109D64000896002008B5064B9B78052B01D10823E3
:109D740003E00920FFF798FA0023184608BD00BF46
:109D84002896002000B58FB003460092ADF8063047
:109D94000B468DF8053003238DF80C3003AB1846C1
:109DA40012F0B0FB9DF8103003F00103002B14BF38
:109DB40001230023DAB2174B1A709DF810301846AD
:109DC400FFF780F903461A46124B5A71114A009B59
:109DD400C2F8DC30BDF812301A460E4B1A610D4B36
:109DE4005B79002B02D10B4B7F225A71FFF7AAFB40
:109DF400094A0021094834F033FB0D900D9B0C9364
:109E04000C9B002B02D00C9833F098FD00BF0FB0D0
:109E14005DF804FB289600200D940200C8A60600F5
:109E240000B583B00190019B0433184632F0FCFF67
:109E340000BF03B05DF804FB00B589B00590039240
:109E44001A460B468DF8133013468DF81230002352
:109E54000793059B181D9DF812209DF813109DF87B
:109E6400283000931346039A33F008FA0790079BAF
:109E7400184609B05DF804FB00B587B00390019261
:109E84001A460B468DF80B3013468DF80A30002322
:109E94000593039B181D9DF80A309DF80B10019A39
:109EA40033F014FA0590059B184607B05DF804FBDF
:109EB40010B586B0104B6C460FCB84E80F0001211F
:109EC400012002F01DFB6946002300220B482DF0FF
:109ED400A7FF05900948FFF7A3FF094B01221A7059
:109EE400059B0493049B002B02D0049833F026FDB9
:109EF40000BF06B010BD00BF18A70600CC2B002081
:109F04001697002008B503482DF07CFF0346184639
:109F140008BD00BFCC2B002084B000B585B00DF186
:109F2400180C8CE80F002D4B00221A70FFF7EAFF83
:109F34000346002B01D1FFF7BBFF00238DF8083047
:109F4400069BDBB2184600F01BF903468DF8093076
:109F5400079BDBB2184600F013F903468DF80A306C
:109F6400089BDBB2184600F00BF9034603F03F03ED
:109F7400DBB28DF80B300C9BDBB2184600F000F915
:109F840003468DF80C30099BDBB2184600F0F8F854
:109F9400034603F03F03DBB28DF80D300A9BDBB2BE
:109FA400184600F0EDF803468DF80E300B9BDBB23B
:109FB400184600F0E5F803468DF80F3002AA002396
:109FC4000093082368210648FFF736FF00F00AF8DB
:109FD40000BF05B05DF804EB04B07047159700208E
:109FE400CC2B002000B585B00F238DF80B30002357
:109FF4008DF80F309DF80B308DF80C309DF80F3034
:10A004008DF80D3000238DF80E3003AA0023009341
:10A01400022368211A48FFF70FFF0DF10B020023FA
:10A024000093012368211648FFF706FF0DF10E0285
:10A03400012368211248FFF71FFF0E238DF80B3010
:10A0440000238DF80E3003AA002300930223682115
:10A054000B48FFF7F1FE0DF10E02012368210848B9
:10A06400FFF70AFF0DF10B0200230093012368217F
:10A074000348FFF7E1FE00BF05B05DF804FB00BF35
:10A08400CC2B002000B58FB0FFF73CFF0346002B1C
:10A0940001D1FFF70DFF012002F0EEF9034683F032
:10A0A4000103DBB2002B03D00121012002F028FAC6
:10A0B40000238DF833300BAB00221A60C3F8032061
:10A0C40002AB2422002118463FF0CDFA0DF13302F1
:10A0D40000230093012368212848FFF7ADFE0BAA53
:10A0E400072368212548FFF7C7FE9DF82C30184642
:10A0F40000F06AF8034602939DF82D30184600F0EC
:10A1040063F8034603939DF82E3003F03F03DBB25C
:10A11400184600F059F8034604939DF82F3018466A
:10A1240000F052F80346013B08939DF8303018467E
:10A1340000F04AF8034605939DF8313003F01F03FD
:10A14400DBB2184600F040F8034606939DF832301F
:10A15400184600F039F80346079300230A9302AB2C
:10A1640018463FF08FF90D900D9812F085FF12F00C
:10A1740033F90D9B18460FB05DF804FBCC2B00207F
:10A1840084B003468DF807309DF807300D4AA2FBD2
:10A194000323DB08DBB21B01D8B29DF80720094B6F
:10A1A400A3FB0213D9080B469B000B445B00D31A94
:10A1B400DBB203448DF80F309DF80F30184604B01D
:10A1C400704700BFCDCCCCCC84B003468DF80730AB
:10A1D4009DF807301B09DBB21A46920013445B005A
:10A1E400DAB29DF8073003F00F03DBB213448DF8A5
:10A1F4000F309DF80F30184604B0704700B583B097
:10A20400FFF780FE0346002B01D1FFF751FE0DF14D
:10A214000302012368211148FFF72EFE0190019BE0
:10A22400002B03D10E4B01221A7002E00C4B0022CA
:10A234001A700B4B1B78002B05D10121002002F072
:10A244005FF9002305E0064B01221A70FFF7CAFEEE
:10A254000123184603B05DF804FB00BFCC2B00209B
:10A264001697002000B585B00190019B002B0AD001
:10A27400074B43F001030393019B9B010293039B50
:10A284000298984700E000BF05B05DF804FB00BFEA
:10A2940030A7060000B583B00190019B002B0AD0C3
:10A2A4004FF47A70FFF7DEFF019B013B0193019BA2
:10A2B400002BF5D100E000BF03B05DF804FB000003
:10A2C40008B51022002102483FF0CDF900BF08BDB7
:10A2D4002897002082B01B4B93F8293003F0010328
:10A2E400002B03D001238DF8073017E0154B93F8AA
:10A2F400293003F00203002B03D002238DF807302A
:10A304000CE0104B93F8293003F00403002B03D026
:10A3140004238DF8073001E0FF230FE0094B93F885
:10A3240029305AB29DF90730DB435BB213405BB26C
:10A33400DAB2044B83F829209DF80730184602B09E
:10A34400704700BF1897002082B003468DF807308D
:10A35400034A9DF8073082F8213000BF02B07047ED
:10A364001897002000B58DB0019000238DF82E3091
:10A37400564B93F82130032B40F0A380534B5B885A
:10A384005A1C91B2514A5180002B03D14F4B0022E9
:10A394009A6097E04D4B5A884C4B9B889A4207D859
:10A3A4004A4B9A68019B5B681344484A936089E06E
:10A3B400464B9A68019B5B681344444A9360434B41
:10A3C4009B68424A928893FBF2F3404AD36000238D
:10A3D4008DF82F3027E03D4B1B7C1A469DF82F301B
:10A3E40042FA03F303F00103002B12D1374B1A7C1A
:10A3F400364B93F820301343DAB2344B1A749DF879
:10A404002E30324AD268314904339B000B445A60DF
:10A414000DE09DF82E3001338DF82E309DF82F304D
:10A4240001338DF82F309DF82F30022BD3D9FFF74D
:10A4340051FF03461A46254B83F82020234B93F8FB
:10A444002030FF2B0FD0214B93F8203018463AF0E0
:10A45400FDFF1E4B00225A801C4B00229A601B4BAE
:10A464000022DA602EE0194BDB6A0133174AD3620B
:10A4740000203AF0F9FF154B5B6A002B1DD003ABAB
:10A484002022002118463FF0EEF803AB04331022DB
:10A494000F4918463FF0BEF802238DF80C300B4BE1
:10A4A40093F828308DF80D30084B002283F82820CB
:10A4B400064B5B6A03AA104698470420FFF744FF43
:10A4C40000E000BF0DB05DF804FB00BF189700204A
:10A4D40028970020084B93F82130002B06D0064B18
:10A4E40093F82130012B01D0012300E0002303F075
:10A4F4000103DBB2184670471897002000B583B0FB
:10A504002A4B93F82130013B032B49D801A252F87E
:10A5140023F000BFA5A5020029A50200A5A50200FD
:10A5240073A50200022001F0A7FF03468DF807304F
:10A534009DF8073083F00103DBB2002B07D0022122
:10A54400012001F0DDFF0A20FFF7A4FE29E0174BEC
:10A5540093F8203018463AF079FF01203AF09EFF34
:10A5640001203AF081FF0320FFF7EEFE19E00220FC
:10A5740001F082FF03468DF806309DF80630002B6B
:10A584000AD000203AF08AFF00203AF06DFF022141
:10A59400002001F0B5FF04E00120FFF7D5FE00E044
:10A5A40000BF00BF03B05DF804FB00BF1897002094
:10A5B40000B583B001900D4A019B53620B4B0122FD
:10A5C40083F82120094B0022DA6201220421084881
:10A5D4003AF07EFF00203AF047FF0221002001F00C
:10A5E4008FFF00BF03B05DF804FB00BF1897002085
:10A5F40069A3020000B583B00190019B002B0FD02A
:10A604002022002101983FF02EF8019B04331022F0
:10A61400054918463EF0FEFF019B02221A7000E035
:10A6240000BF03B05DF804FB2897002000B583B099
:10A6340003468DF807300B46ADF8043013468DF809
:10A644000630BDF80430002B05D09DF8063003F029
:10A654000703002B01D107232BE0184B93F821307B
:10A66400012B01D0082324E0FFF72AFE134ABDF88A
:10A6740004305382114ABDF8043093800F4B0022FA
:10A684005A800E4B00229A600C4A9DF8063082F8DC
:10A694002930FFF71FFE03461A46084B83F8202093
:10A6A400064A9DF8073082F828300220FFF74CFE56
:10A6B4000023184603B05DF804FB00BF1897002080
:10A6C40008B5064B93F82130012B01D1082303E090
:10A6D4000420FFF739FE0023184608BD1897002010
:10A6E40000B589B003468DF8073033F03DFF06907E
:10A6F4001D4B1B681946069833F03CFF05901B4B15
:10A704001B680493049A059B13440393039BC3F3AC
:10A714000E030493039A049BD31ADB0B0293144B8A
:10A724001B681A46029B13440793079B002B08DA05
:10A734000F4B1B681A46029B9B1A03F10043013B13
:10A7440007939DF80730002B08D0084A049B136038
:10A75400074A079B1360044A069B1360079B18462D
:10A7640009B05DF804FB00BF4C970020509700200F
:10A774004897002008B5094B1B78012B03D1FFF73C
:10A7840081FC034608E0054B1B78002B04D1002014
:10A79400FFF7A6FF0346FFE7184608BD16970020FB
:10A7A40000B585B00190124B184633F0BBFE039000
:10A7B400104B00221A60104A019B136033F0D4FE40
:10A7C40002460E4B1A600A4B00224FF4F011184651
:10A7D40033F076FE0390039B0293029B002B02D07E
:10A7E400029833F0ABF800BF05B05DF804FB00BF7E
:10A7F4005497002050970020489700204C97002041
:10A8040000B585B00190114B1B78002B0BD10120B2
:10A81400FFF766FF03900E4B1B68002B03D00C4B15
:10A824001B6803989847094B1B78012B0AD1FFF743
:10A83400A1FF0390064B1B68002B03D0044B1B683D
:10A844000398984700BF05B05DF804FB16970020F5
:10A854007497002000B585B0019000910023039304
:10A864000B4A019B13600B4A01210B4833F0F8FD9E
:10A874000390039B0293029B002B02D0029833F0B7
:10A884005DF80098FFF78CFF00BF05B05DF804FB8E
:10A894007497002005A8020038A7060010B58AB0F6
:10A8A40024220021044601A83EF0DDFE00344FF0CE
:10A8B400A70318BF012401A88DF804308DF80840BF
:10A8C40012F0AEF80AB010BD12F0D6BB30B58BB0A2
:10A8D4002422002101A83EF0C6FE262301A88DF8FB
:10A8E400043011F00FFE12F0E3FB054612F0EEFB0C
:10A8F400044628463CF0BEFA20463CF065FC0BB00A
:10A9040030BD000010B58EB0D8B10378032B18D831
:10A91400DFE803F0024B2248446812F099FB90B13F
:10A924000B2C0ED86FF0630101FB04F101F6340126
:10A9340014BF01230323009364220A2332203AF034
:10A944005FF80EB010BD042CFBD84FF4967101FBD8
:10A9540004F101F57A71EBE701203AF0C1F81B4BE1
:10A9640018689A8803909B79ADF81020002124225E
:10A9740005A88DF812303EF076FE9E23062203A928
:10A984000DF119008DF814308DF818203EF042FEB8
:10A9940005A812F045F80028D3D10CF0B9FF0DF04A
:10A9A40051F8CEE712F038FBCBE7094B1C78022CA8
:10A9B40005D0062CC5D100200DF0A2F8C1E7002077
:10A9C4000DF09EF820463AF08BF8BAE746A7060049
:10A9D400DC2B002002280BD1064B1B78042B4FF0F4
:10A9E400010006D0082B04D0034B187000207047D8
:10A9F40001207047DC2B002078970020064B1A7842
:10AA0400022A07D11A7B2AB901221A73034A13882E
:10AA140001331380704700BFDC2B0020A497002073
:10AA2400032807D14FF08043A922C3F82025002032
:10AA340037F0DEB97047000030B51B4C00258BB0F1
:10AA4400257360B31D2301A88DF8043011F05AFD5D
:10AA5400BDF80A30A360B3F5B46F24BF4FF4B463F8
:10AA6400A360A3689DF80820227565750F484EF60B
:10AA740060245C434FF4004533F054FD4FF4FA7006
:10AA840000214FF47A720023E5FB04013EF0ACF997
:10AA940000220146054833F013FD0BB030BD0348D6
:10AAA40033F040FDF9E700BFDC2B00208497002041
:10AAB4000E2802D101203CF057B97047012901D179
:10AAC4000DF072B824F026B810B504468AB00DF023
:10AAD40079F82046FBF7EAFC6378013B012B1FD889
:10AAE4002422002101A83EF0BEFD2378042B17D8B0
:10AAF400DFE803F0033618222C001622211D03A8D8
:10AB04003EF088FD00238DF808302379FF2B0CBF1D
:10AB14008423042361788DF8043001A8FFF7CEFF65
:10AB24000AB010BD1022211D03A83EF073FD0223BC
:10AB34008DF808308A23EDE71C22211D03A83EF07E
:10AB440069FD03238DF808300C23E3E70A22211D55
:10AB540003A83EF05FFD04238DF808309B23D9E75A
:10AB64000622211D03A83EF055FD01238DF808306F
:10AB74000723CFE70B4601281146184601D10CF0F4
:10AB8400FFBF23F0EDBF00002DE9F0410C469AB061
:10AB940005462422002108A83EF065FD23788DF89F
:10ABA4002030A82B00F2ED80DFE813F0AC00A90000
:10ABB400A900B900BF00AC00EB006A01AC00A90019
:10ABC400CB00A9004F015601A900AC00AC00EB007A
:10ABD400EB005E01D500A900A900A900EB00AC00C0
:10ABE400AC000001AC00A900A900A9002F01450197
:10ABF40048015B01660174015E015E0137013A019F
:10AC04003D014B01BE01EB007401EB00EB00EB00D6
:10AC1400EB00EB00EB00EB00EB00EB00EB00EB00D8
:10AC2400EB00EB00EB00EB00EB00EB00EB00EB00C8
:10AC3400EB00EB00EB00EB00EB00EB00EB00EB00B8
:10AC4400EB00EB00EB00EB00EB00EB00EB00EB00A8
:10AC5400EB00EB00EB00EB00EB00EB00EB00EB0098
:10AC6400EB00EB00EB00EB00EB00EB00EB00EB0088
:10AC7400EB00EB00EB00EB00EB00EB00EB00EB0078
:10AC8400EB00EB00EB00EB00EB00EB00EB00EB0068
:10AC9400EB00EB00EB00EB00EB00EB00EB00EB0058
:10ACA400EB00EB00EB00EB00EB00EB00EB00EB0048
:10ACB400EB00B300C300EB00EB006F01EB001C01E1
:10ACC400CF001C01EB00EB00EB00EB00EB002B01D1
:10ACD4002001B401DA00EE00EE00EE00E000EB002B
:10ACE400EB00FC00EB0004011301EB00EB00EB00B4
:10ACF400EB001C01EB007801B4011C01420108A81F
:10AD040011F000FC012D40F0178108A80CF04CFF55
:10AD140037E0E1882079FEF717FB024624E00DF1C5
:10AD2400260109A8FEF7D8FAECE709A8FEF780FA8D
:10AD3400E8E7217A2846FEF7D5FF022D024669D0BE
:10AD440012E009A8FFF756FCDCE7227A618928465D
:10AD5400FFF76CFCF1E723F07FFE8DF82400D1E7C8
:10AD6400207923F037FE00222178BCE0611D22798E
:10AD7400052023F0B5FA012D014602D120780CF00C
:10AD8400FFFE1AB0BDE8F081204611F049FE002212
:10AD940021782846FFF7EEFE2378952BF1D10CF0AD
:10ADA400A1FEEEE728463BF093FCEAE709A83BF056
:10ADB40067FAA7E7204611F033FE9D2104460246B8
:10ADC4002846FFF7D7FE002CDBD15D4B01229A7594
:10ADD400D7E7204611F024FE064608B90CF098FD8A
:10ADE4003246C1E7204611F01BFE96E7607963897D
:10ADF4000093642141432389E288207939F000FEDD
:10AE04008BE7207939F06CFE87E72146002000F0BB
:10AE140081FD0246002AB4D0A6E721460C20F6E7BD
:10AE240021460E20F3E72146102000F073FD74E75D
:10AE340021460D20F9E721460120E8E721460B20B1
:10AE4400E5E7404B1B6809935CE709A8FCF77AF82F
:10AE54000C238DF8203055E729460120FCF790F8A3
:10AE64006BE723798DF8243008A811F04BFB0246D8
:10AE740000283FF447AF77E708A8FBF7C1FA41E79A
:10AE840009A8FEF777F80723E3E729460120FEF730
:10AE94008FF852E7FFF76EFC099033E72A4B1E78D0
:10AEA400012E24D16368079307A83EF0A9FB0DF196
:10AEB400440801462422404615AF3EF0ABFB0FCFB9
:10AEC4006E460FC63B68336098E80F00FFF724F81E
:10AED4001E4B4FF47A4043F001039847606812F028
:10AEE400CBF8002226212846FFF744FE49E7002E2E
:10AEF4007FF408AFFFF73EFC07466068FFF750FC9D
:10AF04006168384600F04AFC606812F0B5F811F048
:10AF140063FA65E7204611F083FD064600287FF4B6
:10AF24005FAFFFF7D3FC5BE7002D7FF4EBAE044C7F
:10AF3400E57533F019FBA06108A823F0EBFD20E7C9
:10AF4400DC2B0020809700201697002040A70600E5
:10AF540010B5034C207033F007FB606010BD00BFD8
:10AF6400DC2B002008B533F0FFFA054B5B68834205
:10AF740034BFC31A1B1A4FF47A705843C00B08BD70
:10AF8400DC2B00202DE9F043B7B012F061F8B74C88
:10AF940007463BF08BF923780646082B43D8DFE8B5
:10AFA40013F0090045006800A10142009401C701A3
:10AFB400D001D901FFF7D6FF04463BF0A3FF0746B3
:10AFC4003BF07AF9804612F073F8064612F07EF8E8
:10AFD40005463CF037F841F287339C4205D8B8F176
:10AFE400000F20D036B95DB90BE026B14EF65F23D1
:10AFF4009C4200D8BFB925B142F20F739C4200D8DD
:10B0040088B93BF053F9044612F022F818B9082025
:10B01400FFF79EFF07E0002C00F091810120FFF76D
:10B0240097FF00F053FB37B0BDE8F083FFF79AFFBA
:10B034008F4B054618781C4620B901221A7039F046
:10B044004FFDF0E739F08AFC18B142F20F739D42CC
:10B05400E9D9002020700CF053FD012023F0A8FE54
:10B064000120FFF7E9FC33F07FFA824B18600220DD
:10B07400CEE7237B013B042B04D8DFE803F0395FE0
:10B084007B87BB00A37D23B100230120A375FFF7B9
:10B09400D3FC23F099FCF0B1E57DE5B9DFF8D48168
:10B0A400D8F8000033F073FA8146A06933F06FFAE0
:10B0B4004EF65F2398420ED941F2873399450AD957
:10B0C40033F052FA2946C8F80000022022F04AFF61
:10B0D40008B90123E375684B1B78002B00F0EF805F
:10B0E400002023F065FE0020FFF7A6FC03208FE775
:10B0F40023F052FE0028CCD100F0DCFC05460028E9
:10B10400C7D1092368468DF8003011F0FBF90223FA
:10B11400284623733BF0DCFA9DF80420BDF80610A2
:10B124002846FFF783FAFF212846FEF7DBFD294670
:10B134000120FDF73DFF33F017FA2061206933F059
:10B1440026FA63280546A4D9FEF716FA00285BD12F
:10B15400FFF7C0F9002857D1FDF75CFD80460028B1
:10B1640052D10323237333F0FFF9414620610120B8
:10B17400FBF706FF206933F00AFA6328054688D9ED
:10B18400FBF78CFC002860D1042323731B2301A844
:10B194008DF800303BF074F80A230AA88DF82430A7
:10B1A400FFF728FA042313A88DF84830FEF740F877
:10B1B4000C231CA88DF86C30FBF7C4FE072325A8CC
:10B1C4008DF89030FDF7D6FE242200212DA83EF004
:10B1D4004AFA2A4B1B78002B52D125238DF8B43020
:10B1E400FFF7C8FA06222E906946032000F04AFBB6
:10B1F4000523237323F082FC054623F0E5FB002896
:10B2040042D10023237344E741F287339D427FF602
:10B2140040AF0323237333F0A7F9002120610120F9
:10B22400FBF7AEFEFEF7A8F908B1FEF79BFDFFF7AA
:10B2340051F908B1FFF744FAFDF7ECFC002899D066
:10B2440000210846FDF7B4FE94E741F287339D429E
:10B254007FF61FAF04232373FBF720FC002895D04F
:10B2640000210846FBF78CFE90E700BFDC2B002092
:10B27400A6970020A8970020789700201697002012
:10B28400012BADD12E23A9E7637D227D0133DBB2EF
:10B2940085F001059A42EDB2637501D9002DB0D055
:10B2A40000206075FBF794F838B9002D14BF062010
:10B2B4000320002122F056FEA3E70420F9E717B18A
:10B2C400002E7FF4B0AE0520A2E6002023F070FD2E
:10B2D4000CF02EFC0020FFF7AFFB0CF035FC76BB26
:10B2E400062095E6FFF73EFE044623F055FD804612
:10B2F40039F034FB0746FEF73FF90646FFF7EAF854
:10B30400054611F0D3F8B8F1000F54D1002F52D1F3
:10B31400002E50D1002D4ED100284CD1082001F030
:10B32400ABF818B10821002001F0EAF804206FE618
:10B3340010B10120FFF70CFE002F7FF474AE07203C
:10B3440066E63AF0B3FF00283FF461AE012039F01D
:10B35400C7FB5CE623F020FD054639F0FFFA0446FE
:10B36400FFF700FE06463BF0EFFC00287FF45BAEDF
:10B374003BF0C8FD00287FF456AE40F6B7339E423A
:10B3840005D8002D7FF44FAE002C7FF44CAE08207E
:10B3940001F072F818B10821002001F0B1F811F0A1
:10B3A40099F811F093FE04463BF064FF01462046F1
:10B3B40010F050FB37E640F6B7339C42AED832E685
:10B3C4004FF0804310B5D3F80024444B1A6010F0BA
:10B3D40082FE10F031FD10F01BFB36F0A5FC08B125
:10B3E40032F0ACFA10F0F8FF3D4823F0D9FB3D48A9
:10B3F400FFF7DEF83B4A7F214FF49670FEF7C2FC5C
:10B40400002039F0B3FA384A3848012133F028F8DB
:10B4140008B132F093FA36483BF0B8FE35483BF0B9
:10B4240053FD37F091FD08B911F060FE3AF0E2FEE9
:10B434002C48314CFBF7D0FD29480CF08AFB002046
:10B44400FFF786FD274900203BF05EF937F0DCFF6B
:10B454002448FDF7E7FDFFF739FAFEF7CFFE60B1A8
:10B464002378012B09D1FEF7BDFD11F0FDFDFEF798
:10B4740009FE11F001FE10F0AFFF23782BB911F093
:10B48400F3FD01461D48FFF7E5F91D4CFEF7C4F82E
:10B49400FFF734F823F0AEFCFFF774FD00F032FC44
:10B4A400FBF744FCFDF778FCFEF766F808B911F0E9
:10B4B40011F806F08BF8206008B132F03FFA23F05F
:10B4C4006BFC0028E2D1FEF757F80028DED1FBF729
:10B4D400F1FA0028DAD110F0EFFAD7E780970020CC
:10B4E4008DAB0200CDAA020001AA020050A70600FB
:10B4F400A1A8020009A9020016970020CDA8020005
:10B504007C97002000B585B00190019B002B0AD0E8
:10B51400074B43F001030393019B9B010293039B9D
:10B524000298984700E000BF05B05DF804FB00BF37
:10B5340060A7060000B583B00190019B002B0AD0E0
:10B544004FF47A70FFF7DEFF019B013B0193019BEF
:10B55400002BF5D100E000BF03B05DF804FB000050
:10B5640008B5F222002105483EF07DF8044B002284
:10B574005A70034B00221A7000BF08BDAF97002019
:10B58400AC97002000B583B003468DF807300E4B0E
:10B594001B78002B01D0002312E0FFF7E1FF0A4BD8
:10B5A40001221A70084A9DF80730D370064B002216
:10B5B4001A71054B02225A70034B00229A70012320
:10B5C400184603B05DF804FBAC97002000B587B0C3
:10B5D4000390124B1B7883F00103DBB2002B05D0E0
:10B5E4000E4B5B78F12B01D8002313E00B4B5B78F7
:10B5F4001A460A4B1344DA1CF2230093084B0399AE
:10B604000120FCF71DFC0590059B002B01D00023B5
:10B6140000E00123184607B05DF804FBAC97002056
:10B62400AE97002000B583B0254B1B7883F001034F
:10B63400DBB2002B01D000233EE0224B1B78DBB2AF
:10B64400FF2B09D01F4B1B78DBB20F2B04D01C4BF4
:10B6540000221A7000232FE0194B9A78184B1A71A4
:10B66400174B5A78164B9B781344DAB2144B5A7022
:10B67400134B5B785A1CD1B2114A51701A46104BC5
:10B6840013440A22DA700E4B5B7819460E483AF0DE
:10B694002BFA01900A4B5B781A46019B934204D023
:10B6A400074B00221A70002306E00A20FFF742FF2E
:10B6B400034B00221A700123184603B05DF804FB03
:10B6C400AC970020FC2B0020AF97002000B5C3B03E
:10B6D4006B46304A92E80300186004331980002353
:10B6E4008DF807312AE09DF8072102A91346DB00F3
:10B6F40013449B000B442422002118463DF0B3FF61
:10B704009DF807319DF807216946C85C02A91346D4
:10B71400DB0013449B000B4402461A709DF807217A
:10B7240002A91346DB0013449B000B44184610F097
:10B73400E9FE9DF8073101338DF807319DF8073193
:10B74400052BD0D902ABD8332422002118463DF072
:10B754008AFF114B1B78002B03D102AB252283F8FF
:10B76400D8200D4B1B78012B03D102AB2E2283F87A
:10B77400D820FEF7FFFF024602ABC3F8DC2002AB81
:10B7840007221946022000F07DF80346184643B00C
:10B794005DF804FB54A706001697002082B00190C0
:10B7A4000091064A019B1360054A009B1360054BF8
:10B7B40001221A7000BF02B0704700BF4CA60020DF
:10B7C40050A6002048A6002000B595B00190009135
:10B7D40002AB4822002118463DF045FF134B1B786D
:10B7E400012B09D12E238DF80830019B03932E23BE
:10B7F4008DF82C30009B0C930C4B1B78002B09D13B
:10B8040025238DF80830019B039325238DF82C30D4
:10B81400009B0C9302AB02221946072000F032F879
:10B824000346184615B05DF804FB00BF16970020C8
:10B8340000B585B00190019B002B01D1132308E0D2
:10B84400019906480FF091FA03468DF80F309DF8E0
:10B854000F30184605B05DF804FB00BF002C002033
:10B8640000B589B001AB194605480FF07EFA0346CE
:10B874008DF81F30019B184609B05DF804FB00BF2A
:10B88400002C002000B585B0034600918DF80730E8
:10B8940013468DF8063000F00DF90346002B01D055
:10B8A400002333E03AF068F89DF807301846FFF7B4
:10B8B40069FE034683F00103DBB2002B03D03AF0A8
:10B8C400ABFC002322E000238DF80F3013E09DF839
:10B8D4000F201346DB0013449B001A46009B1344BD
:10B8E4001846FFF773FE03468DF80E309DF80F30AF
:10B8F40001338DF80F309DF80F209DF806309A42E1
:10B90400E5D3FFF78FFE3AF087FC0123184605B014
:10B914005DF804FB00B583B0034600918DF8073051
:10B924005B4B1B78DBB2FF2B05D09DF80730102B47
:10B9340001D01123A7E09DF80730102B00F2A0805E
:10B9440001A252F823F000BF91B90200C7B9020066
:10B9540085BA020085BA020085BA020085BA0200DF
:10B96400F9B9020011BA020019BA020001BA0200C0
:10B9740009BA0200E9B9020021BA02006BBA020056
:10B9840033BA020085BA02004BBA02000CF04CF93B
:10B9940003461A463F4B1A703E4B1B78DBB2002B12
:10B9A4000DD00CF04BF93A4B00221A70009B5A78D8
:10B9B400394B1A70009B5B68384A136062E00823B5
:10B9C40061E0009B5A78344B1A70009B1B79002B62
:10B9D40001D0022200E005222D4B1A70304B0022C8
:10B9E4001A604FE0009B5A782B4B1A70284B0B229D
:10B9F4001A7047E02B4B01221A7043E02A4B0022B5
:10BA04001A703FE0284B01221A703BE0214B0122BF
:10BA14001A7037E01F4B00221A7033E0009B5A78EB
:10BA24001D4B1A701A4A9DF8073013702AE0009BC8
:10BA34005A78194B1A70164A9DF8073013701B4B2D
:10BA440000221A701EE0124B1B78DBB20E2B06D0BC
:10BA54000F4B1B78DBB20F2B01D0082313E0134BE1
:10BA640001221A700EE0009B5A780B4B1A70084A98
:10BA74009DF807301370009B5B680D4A136001E06A
:10BA8400102300E00023184603B05DF804FB00BF58
:10BA9400FC2B00200AA40020A198002040A600202E
:10BAA400A498002008A4002009A40020A0F70020E6
:10BAB400A8980020084B1B78012B04D0074B1B7857
:10BAC400DBB2FF2B01D0012300E0002303F00103CC
